{
    "contractName": "MPTEST",
    "abi": [
        {
            "inputs": [],
            "stateMutability": "nonpayable",
            "type": "constructor"
        },
        {
            "anonymous": false,
            "inputs": [
                {
                    "indexed": true,
                    "internalType": "address",
                    "name": "owner",
                    "type": "address"
                },
                {
                    "indexed": true,
                    "internalType": "address",
                    "name": "approved",
                    "type": "address"
                },
                {
                    "indexed": true,
                    "internalType": "uint256",
                    "name": "tokenId",
                    "type": "uint256"
                }
            ],
            "name": "Approval",
            "type": "event"
        },
        {
            "anonymous": false,
            "inputs": [
                {
                    "indexed": true,
                    "internalType": "address",
                    "name": "owner",
                    "type": "address"
                },
                {
                    "indexed": true,
                    "internalType": "address",
                    "name": "operator",
                    "type": "address"
                },
                {
                    "indexed": false,
                    "internalType": "bool",
                    "name": "approved",
                    "type": "bool"
                }
            ],
            "name": "ApprovalForAll",
            "type": "event"
        },
        {
            "anonymous": false,
            "inputs": [
                {
                    "indexed": true,
                    "internalType": "address",
                    "name": "previousOwner",
                    "type": "address"
                },
                {
                    "indexed": true,
                    "internalType": "address",
                    "name": "newOwner",
                    "type": "address"
                }
            ],
            "name": "OwnershipTransferred",
            "type": "event"
        },
        {
            "anonymous": false,
            "inputs": [
                {
                    "indexed": true,
                    "internalType": "address",
                    "name": "from",
                    "type": "address"
                },
                {
                    "indexed": true,
                    "internalType": "address",
                    "name": "to",
                    "type": "address"
                },
                {
                    "indexed": true,
                    "internalType": "uint256",
                    "name": "tokenId",
                    "type": "uint256"
                }
            ],
            "name": "Transfer",
            "type": "event"
        },
        {
            "inputs": [
                {
                    "internalType": "address",
                    "name": "to",
                    "type": "address"
                },
                {
                    "internalType": "uint256",
                    "name": "tokenId",
                    "type": "uint256"
                }
            ],
            "name": "approve",
            "outputs": [],
            "stateMutability": "nonpayable",
            "type": "function"
        },
        {
            "inputs": [
                {
                    "internalType": "address",
                    "name": "owner",
                    "type": "address"
                }
            ],
            "name": "balanceOf",
            "outputs": [
                {
                    "internalType": "uint256",
                    "name": "",
                    "type": "uint256"
                }
            ],
            "stateMutability": "view",
            "type": "function"
        },
        {
            "inputs": [
                {
                    "internalType": "uint256",
                    "name": "tokenId",
                    "type": "uint256"
                }
            ],
            "name": "getApproved",
            "outputs": [
                {
                    "internalType": "address",
                    "name": "",
                    "type": "address"
                }
            ],
            "stateMutability": "view",
            "type": "function"
        },
        {
            "inputs": [
                {
                    "internalType": "address",
                    "name": "owner",
                    "type": "address"
                },
                {
                    "internalType": "address",
                    "name": "operator",
                    "type": "address"
                }
            ],
            "name": "isApprovedForAll",
            "outputs": [
                {
                    "internalType": "bool",
                    "name": "",
                    "type": "bool"
                }
            ],
            "stateMutability": "view",
            "type": "function"
        },
        {
            "inputs": [],
            "name": "name",
            "outputs": [
                {
                    "internalType": "string",
                    "name": "",
                    "type": "string"
                }
            ],
            "stateMutability": "view",
            "type": "function"
        },
        {
            "inputs": [],
            "name": "owner",
            "outputs": [
                {
                    "internalType": "address",
                    "name": "",
                    "type": "address"
                }
            ],
            "stateMutability": "view",
            "type": "function"
        },
        {
            "inputs": [
                {
                    "internalType": "uint256",
                    "name": "tokenId",
                    "type": "uint256"
                }
            ],
            "name": "ownerOf",
            "outputs": [
                {
                    "internalType": "address",
                    "name": "",
                    "type": "address"
                }
            ],
            "stateMutability": "view",
            "type": "function"
        },
        {
            "inputs": [],
            "name": "renounceOwnership",
            "outputs": [],
            "stateMutability": "nonpayable",
            "type": "function"
        },
        {
            "inputs": [
                {
                    "internalType": "address",
                    "name": "from",
                    "type": "address"
                },
                {
                    "internalType": "address",
                    "name": "to",
                    "type": "address"
                },
                {
                    "internalType": "uint256",
                    "name": "tokenId",
                    "type": "uint256"
                }
            ],
            "name": "safeTransferFrom",
            "outputs": [],
            "stateMutability": "nonpayable",
            "type": "function"
        },
        {
            "inputs": [
                {
                    "internalType": "address",
                    "name": "from",
                    "type": "address"
                },
                {
                    "internalType": "address",
                    "name": "to",
                    "type": "address"
                },
                {
                    "internalType": "uint256",
                    "name": "tokenId",
                    "type": "uint256"
                },
                {
                    "internalType": "bytes",
                    "name": "_data",
                    "type": "bytes"
                }
            ],
            "name": "safeTransferFrom",
            "outputs": [],
            "stateMutability": "nonpayable",
            "type": "function"
        },
        {
            "inputs": [
                {
                    "internalType": "address",
                    "name": "operator",
                    "type": "address"
                },
                {
                    "internalType": "bool",
                    "name": "approved",
                    "type": "bool"
                }
            ],
            "name": "setApprovalForAll",
            "outputs": [],
            "stateMutability": "nonpayable",
            "type": "function"
        },
        {
            "inputs": [
                {
                    "internalType": "bytes4",
                    "name": "interfaceId",
                    "type": "bytes4"
                }
            ],
            "name": "supportsInterface",
            "outputs": [
                {
                    "internalType": "bool",
                    "name": "",
                    "type": "bool"
                }
            ],
            "stateMutability": "view",
            "type": "function"
        },
        {
            "inputs": [],
            "name": "symbol",
            "outputs": [
                {
                    "internalType": "string",
                    "name": "",
                    "type": "string"
                }
            ],
            "stateMutability": "view",
            "type": "function"
        },
        {
            "inputs": [
                {
                    "internalType": "address",
                    "name": "from",
                    "type": "address"
                },
                {
                    "internalType": "address",
                    "name": "to",
                    "type": "address"
                },
                {
                    "internalType": "uint256",
                    "name": "tokenId",
                    "type": "uint256"
                }
            ],
            "name": "transferFrom",
            "outputs": [],
            "stateMutability": "nonpayable",
            "type": "function"
        },
        {
            "inputs": [
                {
                    "internalType": "address",
                    "name": "newOwner",
                    "type": "address"
                }
            ],
            "name": "transferOwnership",
            "outputs": [],
            "stateMutability": "nonpayable",
            "type": "function"
        },
        {
            "inputs": [],
            "name": "createToken",
            "outputs": [
                {
                    "internalType": "uint256",
                    "name": "",
                    "type": "uint256"
                }
            ],
            "stateMutability": "nonpayable",
            "type": "function"
        },
        {
            "inputs": [
                {
                    "internalType": "uint256",
                    "name": "tokenId",
                    "type": "uint256"
                }
            ],
            "name": "tokenURI",
            "outputs": [
                {
                    "internalType": "string",
                    "name": "",
                    "type": "string"
                }
            ],
            "stateMutability": "view",
            "type": "function"
        },
        {
            "inputs": [],
            "name": "totalSupply",
            "outputs": [
                {
                    "internalType": "uint256",
                    "name": "",
                    "type": "uint256"
                }
            ],
            "stateMutability": "view",
            "type": "function"
        },
        {
            "inputs": [
                {
                    "internalType": "uint256",
                    "name": "plan",
                    "type": "uint256"
                },
                {
                    "internalType": "string",
                    "name": "url",
                    "type": "string"
                },
                {
                    "internalType": "string",
                    "name": "description",
                    "type": "string"
                }
            ],
            "name": "setPlan",
            "outputs": [],
            "stateMutability": "nonpayable",
            "type": "function"
        },
        {
            "inputs": [
                {
                    "internalType": "uint256",
                    "name": "plan",
                    "type": "uint256"
                }
            ],
            "name": "planImageUrl",
            "outputs": [
                {
                    "internalType": "string",
                    "name": "",
                    "type": "string"
                }
            ],
            "stateMutability": "view",
            "type": "function"
        },
        {
            "inputs": [
                {
                    "internalType": "uint256",
                    "name": "plan",
                    "type": "uint256"
                }
            ],
            "name": "planDescription",
            "outputs": [
                {
                    "internalType": "string",
                    "name": "",
                    "type": "string"
                }
            ],
            "stateMutability": "view",
            "type": "function"
        }
    ],
    "bytecode": "0x60806040523480156200001157600080fd5b50604051806040016040528060068152602001651354151154d560d21b815250604051806040016040528060068152602001651354151154d560d21b8152506200006a620000646200009e60201b60201c565b620000a2565b81516200007f906001906020850190620000f2565b50805162000095906002906020840190620000f2565b505050620001d5565b3390565b600080546001600160a01b038381166001600160a01b0319831681178455604051919092169283917f8be0079c531659141344cd1fd0a4f28419497f9722a3daafe3b4186f6b6457e09190a35050565b828054620001009062000198565b90600052602060002090601f0160209004810192826200012457600085556200016f565b82601f106200013f57805160ff19168380011785556200016f565b828001600101855582156200016f579182015b828111156200016f57825182559160200191906001019062000152565b506200017d92915062000181565b5090565b5b808211156200017d576000815560010162000182565b600181811c90821680620001ad57607f821691505b60208210811415620001cf57634e487b7160e01b600052602260045260246000fd5b50919050565b611d3a80620001e56000396000f3fe608060405234801561001057600080fd5b50600436106101375760003560e01c806370a08231116100b85780639cbf9e361161007c5780639cbf9e3614610271578063a22cb46514610279578063b88d4fde1461028c578063c87b56dd1461029f578063e985e9c5146102b2578063f2fde38b146102ee57600080fd5b806370a082311461022a578063715018a61461023d57806371f94b84146102455780638da5cb5b1461025857806395d89b411461026957600080fd5b806318160ddd116100ff57806318160ddd146101cc57806323b872dd146101de5780632eee980c146101f157806342842e0e146102045780636352211e1461021757600080fd5b806301ffc9a71461013c578063029964761461016457806306fdde0314610184578063081812fc1461018c578063095ea7b3146101b7575b600080fd5b61014f61014a366004611736565b610301565b60405190151581526020015b60405180910390f35b610177610172366004611770565b610353565b60405161015b9190611a73565b6101776103f5565b61019f61019a366004611770565b610487565b6040516001600160a01b03909116815260200161015b565b6101ca6101c536600461170c565b610521565b005b6007545b60405190815260200161015b565b6101ca6101ec3660046115b8565b610637565b6101776101ff366004611770565b610668565b6101ca6102123660046115b8565b610685565b61019f610225366004611770565b6106a0565b6101d0610238366004611563565b610717565b6101ca61079e565b6101ca610253366004611789565b6107d4565b6000546001600160a01b031661019f565b610177610839565b6101d0610848565b6101ca6102873660046116d0565b6108a0565b6101ca61029a3660046115f4565b6108af565b6101776102ad366004611770565b6108e7565b61014f6102c0366004611585565b6001600160a01b03918216600090815260066020908152604080832093909416825291909152205460ff1690565b6101ca6102fc366004611563565b610a73565b60006001600160e01b031982166380ac58cd60e01b148061033257506001600160e01b03198216635b5e139f60e01b145b8061034d57506301ffc9a760e01b6001600160e01b03198316145b92915050565b600081815260096020526040902080546060919061037090611bec565b80601f016020809104026020016040519081016040528092919081815260200182805461039c90611bec565b80156103e95780601f106103be576101008083540402835291602001916103e9565b820191906000526020600020905b8154815290600101906020018083116103cc57829003601f168201915b50505050509050919050565b60606001805461040490611bec565b80601f016020809104026020016040519081016040528092919081815260200182805461043090611bec565b801561047d5780601f106104525761010080835404028352916020019161047d565b820191906000526020600020905b81548152906001019060200180831161046057829003601f168201915b5050505050905090565b6000818152600360205260408120546001600160a01b03166105055760405162461bcd60e51b815260206004820152602c60248201527f4552433732313a20617070726f76656420717565727920666f72206e6f6e657860448201526b34b9ba32b73a103a37b5b2b760a11b60648201526084015b60405180910390fd5b506000908152600560205260409020546001600160a01b031690565b600061052c826106a0565b9050806001600160a01b0316836001600160a01b0316141561059a5760405162461bcd60e51b815260206004820152602160248201527f4552433732313a20617070726f76616c20746f2063757272656e74206f776e656044820152603960f91b60648201526084016104fc565b336001600160a01b03821614806105b657506105b681336102c0565b6106285760405162461bcd60e51b815260206004820152603860248201527f4552433732313a20617070726f76652063616c6c6572206973206e6f74206f7760448201527f6e6572206e6f7220617070726f76656420666f7220616c6c000000000000000060648201526084016104fc565b6106328383610b0e565b505050565b6106413382610b7c565b61065d5760405162461bcd60e51b81526004016104fc90611b0d565b610632838383610c73565b600081815260086020526040902080546060919061037090611bec565b610632838383604051806020016040528060008152506108af565b6000818152600360205260408120546001600160a01b03168061034d5760405162461bcd60e51b815260206004820152602960248201527f4552433732313a206f776e657220717565727920666f72206e6f6e657869737460448201526832b73a103a37b5b2b760b91b60648201526084016104fc565b60006001600160a01b0382166107825760405162461bcd60e51b815260206004820152602a60248201527f4552433732313a2062616c616e636520717565727920666f7220746865207a65604482015269726f206164647265737360b01b60648201526084016104fc565b506001600160a01b031660009081526004602052604090205490565b6000546001600160a01b031633146107c85760405162461bcd60e51b81526004016104fc90611ad8565b6107d26000610e13565b565b6000546001600160a01b031633146107fe5760405162461bcd60e51b81526004016104fc90611ad8565b6000858152600860205260409020610817908585611465565b506000858152600960205260409020610831908383611465565b505050505050565b60606002805461040490611bec565b600754600090819061085b906001611b5e565b90506108673382610e63565b600780546001810182556000919091527fa66cc928b5edb82af9bd49922954155ab7b0942694bea4ce44661d9a8736c688810155919050565b6108ab338383610e7d565b5050565b6108b93383610b7c565b6108d55760405162461bcd60e51b81526004016104fc90611b0d565b6108e184848484610f4c565b50505050565b6000818152600360205260409020546060906001600160a01b03166109425760405162461bcd60e51b81526020600482015260116024820152703737b732bc39b4ba32b73a103a37b5b2b760791b60448201526064016104fc565b60006007610951600185611ba9565b8154811061096157610961611c82565b906000526020600020015490506000604051806040016040528060068152602001651354151154d560d21b81525061099885610f7f565b6040516020016109a99291906118fe565b60408051601f19818403018152828252600085815260096020908152928120919450926109d692016118c9565b60408051601f1981840301815282825260008681526008602090815292812091945092610a03920161195e565b60405160208183030381529060405290506000610a42848484604051602001610a2e9392919061197c565b60405160208183030381529060405261107d565b9050600081604051602001610a5791906119f1565b60408051601f1981840301815291905298975050505050505050565b6000546001600160a01b03163314610a9d5760405162461bcd60e51b81526004016104fc90611ad8565b6001600160a01b038116610b025760405162461bcd60e51b815260206004820152602660248201527f4f776e61626c653a206e6577206f776e657220697320746865207a65726f206160448201526564647265737360d01b60648201526084016104fc565b610b0b81610e13565b50565b600081815260056020526040902080546001600160a01b0319166001600160a01b0384169081179091558190610b43826106a0565b6001600160a01b03167f8c5be1e5ebec7d5bd14f71427d1e84f3dd0314c0f7b2291e5b200ac8c7c3b92560405160405180910390a45050565b6000818152600360205260408120546001600160a01b0316610bf55760405162461bcd60e51b815260206004820152602c60248201527f4552433732313a206f70657261746f7220717565727920666f72206e6f6e657860448201526b34b9ba32b73a103a37b5b2b760a11b60648201526084016104fc565b6000610c00836106a0565b9050806001600160a01b0316846001600160a01b03161480610c3b5750836001600160a01b0316610c3084610487565b6001600160a01b0316145b80610c6b57506001600160a01b0380821660009081526006602090815260408083209388168352929052205460ff165b949350505050565b826001600160a01b0316610c86826106a0565b6001600160a01b031614610cee5760405162461bcd60e51b815260206004820152602960248201527f4552433732313a207472616e73666572206f6620746f6b656e2074686174206960448201526839903737ba1037bbb760b91b60648201526084016104fc565b6001600160a01b038216610d505760405162461bcd60e51b8152602060048201526024808201527f4552433732313a207472616e7366657220746f20746865207a65726f206164646044820152637265737360e01b60648201526084016104fc565b610d5b600082610b0e565b6001600160a01b0383166000908152600460205260408120805460019290610d84908490611ba9565b90915550506001600160a01b0382166000908152600460205260408120805460019290610db2908490611b5e565b909155505060008181526003602052604080822080546001600160a01b0319166001600160a01b0386811691821790925591518493918716917fddf252ad1be2c89b69c2b068fc378daa952ba7f163c4a11628f55a4df523b3ef91a4505050565b600080546001600160a01b038381166001600160a01b0319831681178455604051919092169283917f8be0079c531659141344cd1fd0a4f28419497f9722a3daafe3b4186f6b6457e09190a35050565b6108ab8282604051806020016040528060008152506111e3565b816001600160a01b0316836001600160a01b03161415610edf5760405162461bcd60e51b815260206004820152601960248201527f4552433732313a20617070726f766520746f2063616c6c65720000000000000060448201526064016104fc565b6001600160a01b03838116600081815260066020908152604080832094871680845294825291829020805460ff191686151590811790915591519182527f17307eab39ab6107e8899845ad3d59bd9653f200f220920489ca2b5937696c31910160405180910390a3505050565b610f57848484610c73565b610f6384848484611216565b6108e15760405162461bcd60e51b81526004016104fc90611a86565b606081610fa35750506040805180820190915260018152600360fc1b602082015290565b8160005b8115610fcd5780610fb781611c27565b9150610fc69050600a83611b76565b9150610fa7565b60008167ffffffffffffffff811115610fe857610fe8611c98565b6040519080825280601f01601f191660200182016040528015611012576020820181803683370190505b5090505b8415610c6b57611027600183611ba9565b9150611034600a86611c42565b61103f906030611b5e565b60f81b81838151811061105457611054611c82565b60200101906001600160f81b031916908160001a905350611076600a86611b76565b9450611016565b80516060908061109d575050604080516020810190915260008152919050565b600060036110ac836002611b5e565b6110b69190611b76565b6110c1906004611b8a565b905060006110d0826020611b5e565b67ffffffffffffffff8111156110e8576110e8611c98565b6040519080825280601f01601f191660200182016040528015611112576020820181803683370190505b5090506000604051806060016040528060408152602001611cc5604091399050600181016020830160005b8681101561119e576003818a01810151603f601282901c8116860151600c83901c8216870151600684901c831688015192909316870151600891821b60ff94851601821b92841692909201901b91160160e01b83526004909201910161113d565b5060038606600181146111b857600281146111c9576111d5565b613d3d60f01b6001198301526111d5565b603d60f81b6000198301525b505050918152949350505050565b6111ed8383611323565b6111fa6000848484611216565b6106325760405162461bcd60e51b81526004016104fc90611a86565b60006001600160a01b0384163b1561131857604051630a85bd0160e11b81526001600160a01b0385169063150b7a029061125a903390899088908890600401611a36565b602060405180830381600087803b15801561127457600080fd5b505af19250505080156112a4575060408051601f3d908101601f191682019092526112a191810190611753565b60015b6112fe573d8080156112d2576040519150601f19603f3d011682016040523d82523d6000602084013e6112d7565b606091505b5080516112f65760405162461bcd60e51b81526004016104fc90611a86565b805181602001fd5b6001600160e01b031916630a85bd0160e11b149050610c6b565b506001949350505050565b6001600160a01b0382166113795760405162461bcd60e51b815260206004820181905260248201527f4552433732313a206d696e7420746f20746865207a65726f206164647265737360448201526064016104fc565b6000818152600360205260409020546001600160a01b0316156113de5760405162461bcd60e51b815260206004820152601c60248201527f4552433732313a20746f6b656e20616c7265616479206d696e7465640000000060448201526064016104fc565b6001600160a01b0382166000908152600460205260408120805460019290611407908490611b5e565b909155505060008181526003602052604080822080546001600160a01b0319166001600160a01b03861690811790915590518392907fddf252ad1be2c89b69c2b068fc378daa952ba7f163c4a11628f55a4df523b3ef908290a45050565b82805461147190611bec565b90600052602060002090601f01602090048101928261149357600085556114d9565b82601f106114ac5782800160ff198235161785556114d9565b828001600101855582156114d9579182015b828111156114d95782358255916020019190600101906114be565b506114e59291506114e9565b5090565b5b808211156114e557600081556001016114ea565b80356001600160a01b038116811461151557600080fd5b919050565b60008083601f84011261152c57600080fd5b50813567ffffffffffffffff81111561154457600080fd5b60208301915083602082850101111561155c57600080fd5b9250929050565b60006020828403121561157557600080fd5b61157e826114fe565b9392505050565b6000806040838503121561159857600080fd5b6115a1836114fe565b91506115af602084016114fe565b90509250929050565b6000806000606084860312156115cd57600080fd5b6115d6846114fe565b92506115e4602085016114fe565b9150604084013590509250925092565b6000806000806080858703121561160a57600080fd5b611613856114fe565b9350611621602086016114fe565b925060408501359150606085013567ffffffffffffffff8082111561164557600080fd5b818701915087601f83011261165957600080fd5b81358181111561166b5761166b611c98565b604051601f8201601f19908116603f0116810190838211818310171561169357611693611c98565b816040528281528a60208487010111156116ac57600080fd5b82602086016020830137600060208483010152809550505050505092959194509250565b600080604083850312156116e357600080fd5b6116ec836114fe565b91506020830135801515811461170157600080fd5b809150509250929050565b6000806040838503121561171f57600080fd5b611728836114fe565b946020939093013593505050565b60006020828403121561174857600080fd5b813561157e81611cae565b60006020828403121561176557600080fd5b815161157e81611cae565b60006020828403121561178257600080fd5b5035919050565b6000806000806000606086880312156117a157600080fd5b85359450602086013567ffffffffffffffff808211156117c057600080fd5b6117cc89838a0161151a565b909650945060408801359150808211156117e557600080fd5b506117f28882890161151a565b969995985093965092949392505050565b6000815180845261181b816020860160208601611bc0565b601f01601f19169290920160200192915050565b8054600090600181811c908083168061184957607f831692505b602080841082141561186b57634e487b7160e01b600052602260045260246000fd5b81801561187f5760018114611890576118bd565b60ff198616895284890196506118bd565b60008881526020902060005b868110156118b55781548b82015290850190830161189c565b505084890196505b50505050505092915050565b6e113232b9b1b934b83a34b7b7111d1160891b815260006118ed600f83018461182f565b601160f91b81526001019392505050565b67113730b6b2911d1160c11b81528251600090611922816008850160208801611bc0565b61202360f01b600891840191820152835161194481600a840160208801611bc0565b601160f91b600a9290910191820152600b01949350505050565b681134b6b0b3b2911d1160b91b815260006118ed600983018461182f565b607b60f81b815260008451611998816001850160208901611bc0565b8083019050600b60fa1b80600183015285516119bb816002850160208a01611bc0565b600292019182015283516119d6816003840160208801611bc0565b607d60f81b6003929091019182015260040195945050505050565b7f646174613a6170706c69636174696f6e2f6a736f6e3b6261736536342c000000815260008251611a2981601d850160208701611bc0565b91909101601d0192915050565b6001600160a01b0385811682528416602082015260408101839052608060608201819052600090611a6990830184611803565b9695505050505050565b60208152600061157e6020830184611803565b60208082526032908201527f4552433732313a207472616e7366657220746f206e6f6e20455243373231526560408201527131b2b4bb32b91034b6b83632b6b2b73a32b960711b606082015260800190565b6020808252818101527f4f776e61626c653a2063616c6c6572206973206e6f7420746865206f776e6572604082015260600190565b60208082526031908201527f4552433732313a207472616e736665722063616c6c6572206973206e6f74206f6040820152701ddb995c881b9bdc88185c1c1c9bdd9959607a1b606082015260800190565b60008219821115611b7157611b71611c56565b500190565b600082611b8557611b85611c6c565b500490565b6000816000190483118215151615611ba457611ba4611c56565b500290565b600082821015611bbb57611bbb611c56565b500390565b60005b83811015611bdb578181015183820152602001611bc3565b838111156108e15750506000910152565b600181811c90821680611c0057607f821691505b60208210811415611c2157634e487b7160e01b600052602260045260246000fd5b50919050565b6000600019821415611c3b57611c3b611c56565b5060010190565b600082611c5157611c51611c6c565b500690565b634e487b7160e01b600052601160045260246000fd5b634e487b7160e01b600052601260045260246000fd5b634e487b7160e01b600052603260045260246000fd5b634e487b7160e01b600052604160045260246000fd5b6001600160e01b031981168114610b0b57600080fdfe4142434445464748494a4b4c4d4e4f505152535455565758595a6162636465666768696a6b6c6d6e6f707172737475767778797a303132333435363738392b2fa264697066735822122070279c77540e4745cd8b29bf9bdac0dc8a39ad0b7d86aa078e664abd9148453364736f6c63430008060033",
    "immutableReferences": {},
    "source": "// SPDX-License-Identifier: MIT\npragma solidity >= 0.4.0  < 0.9.0;\n\nimport \"@openzeppelin/contracts/access/Ownable.sol\";\nimport \"@openzeppelin/contracts/token/ERC721/ERC721.sol\";\n\nlibrary LibString {\n    function toString(uint256 value) internal pure returns (string memory) {\n\n        if (value == 0) {\n            return \"0\";\n        }\n        uint256 temp = value;\n        uint256 digits;\n        while (temp != 0) {\n            digits++;\n            temp /= 10;\n        }\n        bytes memory buffer = new bytes(digits);\n        while (value != 0) {\n            digits -= 1;\n            buffer[digits] = bytes1(uint8(48 + uint256(value % 10)));\n            value /= 10;\n        }\n        return string(buffer);\n    }\n\n}\n\nlibrary LibBase64 {\n    bytes internal constant TABLE =\n        \"ABCDEFGHIJKLMNOPQRSTUVWXYZabcdefghijklmnopqrstuvwxyz0123456789+/\";\n\n    /// @notice Encodes some bytes to the base64 representation\n    function encode(bytes memory data) internal pure returns (string memory) {\n        uint256 len = data.length;\n        if (len == 0) return \"\";\n\n        // multiply by 4/3 rounded up\n        uint256 encodedLen = 4 * ((len + 2) / 3);\n\n        // Add some extra buffer at the end\n        bytes memory result = new bytes(encodedLen + 32);\n\n        bytes memory table = TABLE;\n\n        assembly {\n            let tablePtr := add(table, 1)\n            let resultPtr := add(result, 32)\n\n            for {\n                let i := 0\n            } lt(i, len) {\n\n            } {\n                i := add(i, 3)\n                let input := and(mload(add(data, i)), 0xffffff)\n\n                let out := mload(add(tablePtr, and(shr(18, input), 0x3F)))\n                out := shl(8, out)\n                out := add(\n                    out,\n                    and(mload(add(tablePtr, and(shr(12, input), 0x3F))), 0xFF)\n                )\n                out := shl(8, out)\n                out := add(\n                    out,\n                    and(mload(add(tablePtr, and(shr(6, input), 0x3F))), 0xFF)\n                )\n                out := shl(8, out)\n                out := add(\n                    out,\n                    and(mload(add(tablePtr, and(input, 0x3F))), 0xFF)\n                )\n                out := shl(224, out)\n\n                mstore(resultPtr, out)\n\n                resultPtr := add(resultPtr, 4)\n            }\n\n            switch mod(len, 3)\n            case 1 {\n                mstore(sub(resultPtr, 2), shl(240, 0x3d3d))\n            }\n            case 2 {\n                mstore(sub(resultPtr, 1), shl(248, 0x3d))\n            }\n\n            mstore(result, encodedLen)\n        }\n\n        return string(result);\n    }\n}\n\ncontract MPTEST is Ownable, ERC721{\n\n    string constant private TOKEN_NAME = \"MPTEST\";\n    string constant private TOKEN_SYMBOL = \"MPTEST\";\n    uint256 constant private TOKEN_ID_OFFSET = 1;\n    uint256[] private _planTypes;\n\n    // URL()\n    mapping( uint256 => string ) private _planImageUrls;\n    mapping( uint256 => string ) private _planDescriptions;\n\n    constructor() Ownable() ERC721( TOKEN_NAME, TOKEN_SYMBOL ){}\n\n\n    function createToken() external returns(uint256){\n        uint256 newItemId = TOKEN_ID_OFFSET + _planTypes.length;\n        _safeMint(_msgSender(),newItemId);\n        _planTypes.push(_planTypes.length);\n        return newItemId;\n    }\n\n    function tokenURI(uint256 tokenId)\n        public\n        view\n        override\n        returns(string memory)\n    {\n        require( _exists( tokenId ), \"nonexsitent token\" );\n        uint256 planType = _planTypes[tokenId - TOKEN_ID_OFFSET];\n\n        string memory name = string( abi.encodePacked( '\"name\":\"', TOKEN_SYMBOL, ' #', LibString.toString(tokenId), '\"' ) );\n        string memory description = string( abi.encodePacked( '\"description\":\"', _planDescriptions[planType], '\"' ) );\n        string memory image = string( abi.encodePacked( '\"image\":\"', _planImageUrls[planType], '\"' ) );\n\n         // [Base64]\n        string memory json = LibBase64.encode(\n            bytes(\n                string(\n                    abi.encodePacked(\n                        '{',\n                        name,\n                        ',',\n                        description,\n                        ',',\n                        image,\n                        '}'\n                    )\n                )\n            )\n        );\n\n        string memory output = string(\n            abi.encodePacked(\"data:application/json;base64,\", json)\n        );\n        return output;\n    }\n\n    function totalSupply() external view returns(uint256){\n        return _planTypes.length;\n    }\n\n    function setPlan( uint256 plan, string calldata url, string calldata description ) external onlyOwner {\n        _planImageUrls[plan] = url;\n        _planDescriptions[plan] = description;\n    }\n\n    function planImageUrl( uint256 plan ) external view returns (string memory) { return( _planImageUrls[plan] ); }\n    function planDescription( uint256 plan ) external view returns (string memory) { return( _planDescriptions[plan] ); }\n\n}\n",
    "sourcePath": "/Users/yamane/smartContract/Dapps_py/truffle_pro/contracts/mptest.sol",
    "compiler": {
        "name": "solc",
        "version": "0.8.6+commit.11564f7e.Emscripten.clang"
    },
    "schemaVersion": "3.4.3",
    "updatedAt": "2022-02-10T06:33:43.740Z",
    "devdoc": {
        "kind": "dev",
        "methods": {
            "approve(address,uint256)": {
                "details": "See {IERC721-approve}."
            },
            "balanceOf(address)": {
                "details": "See {IERC721-balanceOf}."
            },
            "getApproved(uint256)": {
                "details": "See {IERC721-getApproved}."
            },
            "isApprovedForAll(address,address)": {
                "details": "See {IERC721-isApprovedForAll}."
            },
            "name()": {
                "details": "See {IERC721Metadata-name}."
            },
            "owner()": {
                "details": "Returns the address of the current owner."
            },
            "ownerOf(uint256)": {
                "details": "See {IERC721-ownerOf}."
            },
            "renounceOwnership()": {
                "details": "Leaves the contract without owner. It will not be possible to call `onlyOwner` functions anymore. Can only be called by the current owner. NOTE: Renouncing ownership will leave the contract without an owner, thereby removing any functionality that is only available to the owner."
            },
            "safeTransferFrom(address,address,uint256)": {
                "details": "See {IERC721-safeTransferFrom}."
            },
            "safeTransferFrom(address,address,uint256,bytes)": {
                "details": "See {IERC721-safeTransferFrom}."
            },
            "setApprovalForAll(address,bool)": {
                "details": "See {IERC721-setApprovalForAll}."
            },
            "supportsInterface(bytes4)": {
                "details": "See {IERC165-supportsInterface}."
            },
            "symbol()": {
                "details": "See {IERC721Metadata-symbol}."
            },
            "tokenURI(uint256)": {
                "details": "See {IERC721Metadata-tokenURI}."
            },
            "transferFrom(address,address,uint256)": {
                "details": "See {IERC721-transferFrom}."
            },
            "transferOwnership(address)": {
                "details": "Transfers ownership of the contract to a new account (`newOwner`). Can only be called by the current owner."
            }
        },
        "version": 1
    },
    "userdoc": {
        "kind": "user",
        "methods": {},
        "version": 1
    }
}