{
    "contractName": "MPTEST",
    "abi": [
        {
            "inputs": [],
            "stateMutability": "nonpayable",
            "type": "constructor"
        },
        {
            "anonymous": false,
            "inputs": [
                {
                    "indexed": true,
                    "internalType": "address",
                    "name": "owner",
                    "type": "address"
                },
                {
                    "indexed": true,
                    "internalType": "address",
                    "name": "approved",
                    "type": "address"
                },
                {
                    "indexed": true,
                    "internalType": "uint256",
                    "name": "tokenId",
                    "type": "uint256"
                }
            ],
            "name": "Approval",
            "type": "event"
        },
        {
            "anonymous": false,
            "inputs": [
                {
                    "indexed": true,
                    "internalType": "address",
                    "name": "owner",
                    "type": "address"
                },
                {
                    "indexed": true,
                    "internalType": "address",
                    "name": "operator",
                    "type": "address"
                },
                {
                    "indexed": false,
                    "internalType": "bool",
                    "name": "approved",
                    "type": "bool"
                }
            ],
            "name": "ApprovalForAll",
            "type": "event"
        },
        {
            "anonymous": false,
            "inputs": [
                {
                    "indexed": true,
                    "internalType": "address",
                    "name": "previousOwner",
                    "type": "address"
                },
                {
                    "indexed": true,
                    "internalType": "address",
                    "name": "newOwner",
                    "type": "address"
                }
            ],
            "name": "OwnershipTransferred",
            "type": "event"
        },
        {
            "anonymous": false,
            "inputs": [
                {
                    "indexed": true,
                    "internalType": "address",
                    "name": "from",
                    "type": "address"
                },
                {
                    "indexed": true,
                    "internalType": "address",
                    "name": "to",
                    "type": "address"
                },
                {
                    "indexed": true,
                    "internalType": "uint256",
                    "name": "tokenId",
                    "type": "uint256"
                }
            ],
            "name": "Transfer",
            "type": "event"
        },
        {
            "inputs": [
                {
                    "internalType": "address",
                    "name": "to",
                    "type": "address"
                },
                {
                    "internalType": "uint256",
                    "name": "tokenId",
                    "type": "uint256"
                }
            ],
            "name": "approve",
            "outputs": [],
            "stateMutability": "nonpayable",
            "type": "function"
        },
        {
            "inputs": [
                {
                    "internalType": "address",
                    "name": "owner",
                    "type": "address"
                }
            ],
            "name": "balanceOf",
            "outputs": [
                {
                    "internalType": "uint256",
                    "name": "",
                    "type": "uint256"
                }
            ],
            "stateMutability": "view",
            "type": "function"
        },
        {
            "inputs": [
                {
                    "internalType": "uint256",
                    "name": "tokenId",
                    "type": "uint256"
                }
            ],
            "name": "getApproved",
            "outputs": [
                {
                    "internalType": "address",
                    "name": "",
                    "type": "address"
                }
            ],
            "stateMutability": "view",
            "type": "function"
        },
        {
            "inputs": [
                {
                    "internalType": "address",
                    "name": "owner",
                    "type": "address"
                },
                {
                    "internalType": "address",
                    "name": "operator",
                    "type": "address"
                }
            ],
            "name": "isApprovedForAll",
            "outputs": [
                {
                    "internalType": "bool",
                    "name": "",
                    "type": "bool"
                }
            ],
            "stateMutability": "view",
            "type": "function"
        },
        {
            "inputs": [],
            "name": "name",
            "outputs": [
                {
                    "internalType": "string",
                    "name": "",
                    "type": "string"
                }
            ],
            "stateMutability": "view",
            "type": "function"
        },
        {
            "inputs": [],
            "name": "owner",
            "outputs": [
                {
                    "internalType": "address",
                    "name": "",
                    "type": "address"
                }
            ],
            "stateMutability": "view",
            "type": "function"
        },
        {
            "inputs": [
                {
                    "internalType": "uint256",
                    "name": "tokenId",
                    "type": "uint256"
                }
            ],
            "name": "ownerOf",
            "outputs": [
                {
                    "internalType": "address",
                    "name": "",
                    "type": "address"
                }
            ],
            "stateMutability": "view",
            "type": "function"
        },
        {
            "inputs": [],
            "name": "renounceOwnership",
            "outputs": [],
            "stateMutability": "nonpayable",
            "type": "function"
        },
        {
            "inputs": [
                {
                    "internalType": "address",
                    "name": "from",
                    "type": "address"
                },
                {
                    "internalType": "address",
                    "name": "to",
                    "type": "address"
                },
                {
                    "internalType": "uint256",
                    "name": "tokenId",
                    "type": "uint256"
                }
            ],
            "name": "safeTransferFrom",
            "outputs": [],
            "stateMutability": "nonpayable",
            "type": "function"
        },
        {
            "inputs": [
                {
                    "internalType": "address",
                    "name": "from",
                    "type": "address"
                },
                {
                    "internalType": "address",
                    "name": "to",
                    "type": "address"
                },
                {
                    "internalType": "uint256",
                    "name": "tokenId",
                    "type": "uint256"
                },
                {
                    "internalType": "bytes",
                    "name": "_data",
                    "type": "bytes"
                }
            ],
            "name": "safeTransferFrom",
            "outputs": [],
            "stateMutability": "nonpayable",
            "type": "function"
        },
        {
            "inputs": [
                {
                    "internalType": "address",
                    "name": "operator",
                    "type": "address"
                },
                {
                    "internalType": "bool",
                    "name": "approved",
                    "type": "bool"
                }
            ],
            "name": "setApprovalForAll",
            "outputs": [],
            "stateMutability": "nonpayable",
            "type": "function"
        },
        {
            "inputs": [
                {
                    "internalType": "bytes4",
                    "name": "interfaceId",
                    "type": "bytes4"
                }
            ],
            "name": "supportsInterface",
            "outputs": [
                {
                    "internalType": "bool",
                    "name": "",
                    "type": "bool"
                }
            ],
            "stateMutability": "view",
            "type": "function"
        },
        {
            "inputs": [],
            "name": "symbol",
            "outputs": [
                {
                    "internalType": "string",
                    "name": "",
                    "type": "string"
                }
            ],
            "stateMutability": "view",
            "type": "function"
        },
        {
            "inputs": [
                {
                    "internalType": "address",
                    "name": "from",
                    "type": "address"
                },
                {
                    "internalType": "address",
                    "name": "to",
                    "type": "address"
                },
                {
                    "internalType": "uint256",
                    "name": "tokenId",
                    "type": "uint256"
                }
            ],
            "name": "transferFrom",
            "outputs": [],
            "stateMutability": "nonpayable",
            "type": "function"
        },
        {
            "inputs": [
                {
                    "internalType": "address",
                    "name": "newOwner",
                    "type": "address"
                }
            ],
            "name": "transferOwnership",
            "outputs": [],
            "stateMutability": "nonpayable",
            "type": "function"
        },
        {
            "inputs": [
                {
                    "internalType": "address[]",
                    "name": "nftOwners",
                    "type": "address[]"
                },
                {
                    "internalType": "uint256",
                    "name": "planType",
                    "type": "uint256"
                }
            ],
            "name": "batchCreateTokenUsingImgUrl",
            "outputs": [],
            "stateMutability": "nonpayable",
            "type": "function"
        },
        {
            "inputs": [
                {
                    "internalType": "uint256",
                    "name": "planType",
                    "type": "uint256"
                }
            ],
            "name": "createToken",
            "outputs": [
                {
                    "internalType": "uint256",
                    "name": "",
                    "type": "uint256"
                }
            ],
            "stateMutability": "nonpayable",
            "type": "function"
        },
        {
            "inputs": [
                {
                    "internalType": "uint256",
                    "name": "tokenId",
                    "type": "uint256"
                }
            ],
            "name": "tokenURI",
            "outputs": [
                {
                    "internalType": "string",
                    "name": "",
                    "type": "string"
                }
            ],
            "stateMutability": "view",
            "type": "function"
        },
        {
            "inputs": [],
            "name": "totalSupply",
            "outputs": [
                {
                    "internalType": "uint256",
                    "name": "",
                    "type": "uint256"
                }
            ],
            "stateMutability": "view",
            "type": "function"
        },
        {
            "inputs": [
                {
                    "internalType": "uint256",
                    "name": "plan",
                    "type": "uint256"
                },
                {
                    "internalType": "string",
                    "name": "url",
                    "type": "string"
                },
                {
                    "internalType": "string",
                    "name": "description",
                    "type": "string"
                }
            ],
            "name": "setPlan",
            "outputs": [],
            "stateMutability": "nonpayable",
            "type": "function"
        },
        {
            "inputs": [
                {
                    "internalType": "uint256",
                    "name": "plan",
                    "type": "uint256"
                }
            ],
            "name": "planImageUrl",
            "outputs": [
                {
                    "internalType": "string",
                    "name": "",
                    "type": "string"
                }
            ],
            "stateMutability": "view",
            "type": "function"
        },
        {
            "inputs": [
                {
                    "internalType": "uint256",
                    "name": "plan",
                    "type": "uint256"
                }
            ],
            "name": "planDescription",
            "outputs": [
                {
                    "internalType": "string",
                    "name": "",
                    "type": "string"
                }
            ],
            "stateMutability": "view",
            "type": "function"
        }
    ],
    "bytecode": "0x60806040523480156200001157600080fd5b50604051806040016040528060068152602001651354151154d560d21b815250604051806040016040528060068152602001651354151154d560d21b8152506200006a620000646200009e60201b60201c565b620000a2565b81516200007f906001906020850190620000f2565b50805162000095906002906020840190620000f2565b505050620001d5565b3390565b600080546001600160a01b038381166001600160a01b0319831681178455604051919092169283917f8be0079c531659141344cd1fd0a4f28419497f9722a3daafe3b4186f6b6457e09190a35050565b828054620001009062000198565b90600052602060002090601f0160209004810192826200012457600085556200016f565b82601f106200013f57805160ff19168380011785556200016f565b828001600101855582156200016f579182015b828111156200016f57825182559160200191906001019062000152565b506200017d92915062000181565b5090565b5b808211156200017d576000815560010162000182565b600181811c90821680620001ad57607f821691505b60208210811415620001cf57634e487b7160e01b600052602260045260246000fd5b50919050565b611ef180620001e56000396000f3fe608060405234801561001057600080fd5b50600436106101425760003560e01c80636352211e116100b857806395d89b411161007c57806395d89b411461029a578063a22cb465146102a2578063b88d4fde146102b5578063c87b56dd146102c8578063e985e9c5146102db578063f2fde38b1461031757600080fd5b80636352211e1461024857806370a082311461025b578063715018a61461026e57806371f94b84146102765780638da5cb5b1461028957600080fd5b806318160ddd1161010a57806318160ddd146101d757806323b872dd146101e95780632d571cc4146101fc5780632eee980c1461020f57806342842e0e1461022257806356f13d441461023557600080fd5b806301ffc9a714610147578063029964761461016f57806306fdde031461018f578063081812fc14610197578063095ea7b3146101c2575b600080fd5b61015a6101553660046118bc565b61032a565b60405190151581526020015b60405180910390f35b61018261017d3660046118f6565b61037c565b6040516101669190611bf9565b61018261041e565b6101aa6101a53660046118f6565b6104b0565b6040516001600160a01b039091168152602001610166565b6101d56101d03660046117d8565b61054a565b005b6007545b604051908152602001610166565b6101d56101f73660046116a0565b610660565b6101db61020a3660046118f6565b610691565b61018261021d3660046118f6565b6106ea565b6101d56102303660046116a0565b610707565b6101d5610243366004611802565b610722565b6101aa6102563660046118f6565b6107e6565b6101db61026936600461164b565b61085d565b6101d56108e4565b6101d561028436600461190f565b61091a565b6000546001600160a01b03166101aa565b61018261097f565b6101d56102b036600461179c565b61098e565b6101d56102c33660046116dc565b61099d565b6101826102d63660046118f6565b6109cf565b61015a6102e936600461166d565b6001600160a01b03918216600090815260066020908152604080832093909416825291909152205460ff1690565b6101d561032536600461164b565b610b5b565b60006001600160e01b031982166380ac58cd60e01b148061035b57506001600160e01b03198216635b5e139f60e01b145b8061037657506301ffc9a760e01b6001600160e01b03198316145b92915050565b600081815260096020526040902080546060919061039990611da3565b80601f01602080910402602001604051908101604052809291908181526020018280546103c590611da3565b80156104125780601f106103e757610100808354040283529160200191610412565b820191906000526020600020905b8154815290600101906020018083116103f557829003601f168201915b50505050509050919050565b60606001805461042d90611da3565b80601f016020809104026020016040519081016040528092919081815260200182805461045990611da3565b80156104a65780601f1061047b576101008083540402835291602001916104a6565b820191906000526020600020905b81548152906001019060200180831161048957829003601f168201915b5050505050905090565b6000818152600360205260408120546001600160a01b031661052e5760405162461bcd60e51b815260206004820152602c60248201527f4552433732313a20617070726f76656420717565727920666f72206e6f6e657860448201526b34b9ba32b73a103a37b5b2b760a11b60648201526084015b60405180910390fd5b506000908152600560205260409020546001600160a01b031690565b6000610555826107e6565b9050806001600160a01b0316836001600160a01b031614156105c35760405162461bcd60e51b815260206004820152602160248201527f4552433732313a20617070726f76616c20746f2063757272656e74206f776e656044820152603960f91b6064820152608401610525565b336001600160a01b03821614806105df57506105df81336102e9565b6106515760405162461bcd60e51b815260206004820152603860248201527f4552433732313a20617070726f76652063616c6c6572206973206e6f74206f7760448201527f6e6572206e6f7220617070726f76656420666f7220616c6c00000000000000006064820152608401610525565b61065b8383610bf6565b505050565b61066a3382610c64565b6106865760405162461bcd60e51b815260040161052590611c93565b61065b838383610d5b565b60075460009081906106a4906001611d15565b90506106b03382610efb565b600780546001810182556000919091527fa66cc928b5edb82af9bd49922954155ab7b0942694bea4ce44661d9a8736c68801929092555090565b600081815260086020526040902080546060919061039990611da3565b61065b8383836040518060200160405280600081525061099d565b6000546001600160a01b0316331461074c5760405162461bcd60e51b815260040161052590611c5e565b815160005b818110156107e057600084828151811061076d5761076d611e39565b602002602001015190506000600780549050600161078b9190611d15565b90506107978282610efb565b5050600780546001810182556000919091527fa66cc928b5edb82af9bd49922954155ab7b0942694bea4ce44661d9a8736c68801839055806107d881611dde565b915050610751565b50505050565b6000818152600360205260408120546001600160a01b0316806103765760405162461bcd60e51b815260206004820152602960248201527f4552433732313a206f776e657220717565727920666f72206e6f6e657869737460448201526832b73a103a37b5b2b760b91b6064820152608401610525565b60006001600160a01b0382166108c85760405162461bcd60e51b815260206004820152602a60248201527f4552433732313a2062616c616e636520717565727920666f7220746865207a65604482015269726f206164647265737360b01b6064820152608401610525565b506001600160a01b031660009081526004602052604090205490565b6000546001600160a01b0316331461090e5760405162461bcd60e51b815260040161052590611c5e565b6109186000610f15565b565b6000546001600160a01b031633146109445760405162461bcd60e51b815260040161052590611c5e565b600085815260086020526040902061095d90858561154d565b50600085815260096020526040902061097790838361154d565b505050505050565b60606002805461042d90611da3565b610999338383610f65565b5050565b6109a73383610c64565b6109c35760405162461bcd60e51b815260040161052590611c93565b6107e084848484611034565b6000818152600360205260409020546060906001600160a01b0316610a2a5760405162461bcd60e51b81526020600482015260116024820152703737b732bc39b4ba32b73a103a37b5b2b760791b6044820152606401610525565b60006007610a39600185611d60565b81548110610a4957610a49611e39565b906000526020600020015490506000604051806040016040528060068152602001651354151154d560d21b815250610a8085611067565b604051602001610a91929190611a84565b60408051601f1981840301815282825260008581526009602090815292812091945092610abe9201611a4f565b60408051601f1981840301815282825260008681526008602090815292812091945092610aeb9201611ae4565b60405160208183030381529060405290506000610b2a848484604051602001610b1693929190611b02565b604051602081830303815290604052611165565b9050600081604051602001610b3f9190611b77565b60408051601f1981840301815291905298975050505050505050565b6000546001600160a01b03163314610b855760405162461bcd60e51b815260040161052590611c5e565b6001600160a01b038116610bea5760405162461bcd60e51b815260206004820152602660248201527f4f776e61626c653a206e6577206f776e657220697320746865207a65726f206160448201526564647265737360d01b6064820152608401610525565b610bf381610f15565b50565b600081815260056020526040902080546001600160a01b0319166001600160a01b0384169081179091558190610c2b826107e6565b6001600160a01b03167f8c5be1e5ebec7d5bd14f71427d1e84f3dd0314c0f7b2291e5b200ac8c7c3b92560405160405180910390a45050565b6000818152600360205260408120546001600160a01b0316610cdd5760405162461bcd60e51b815260206004820152602c60248201527f4552433732313a206f70657261746f7220717565727920666f72206e6f6e657860448201526b34b9ba32b73a103a37b5b2b760a11b6064820152608401610525565b6000610ce8836107e6565b9050806001600160a01b0316846001600160a01b03161480610d235750836001600160a01b0316610d18846104b0565b6001600160a01b0316145b80610d5357506001600160a01b0380821660009081526006602090815260408083209388168352929052205460ff165b949350505050565b826001600160a01b0316610d6e826107e6565b6001600160a01b031614610dd65760405162461bcd60e51b815260206004820152602960248201527f4552433732313a207472616e73666572206f6620746f6b656e2074686174206960448201526839903737ba1037bbb760b91b6064820152608401610525565b6001600160a01b038216610e385760405162461bcd60e51b8152602060048201526024808201527f4552433732313a207472616e7366657220746f20746865207a65726f206164646044820152637265737360e01b6064820152608401610525565b610e43600082610bf6565b6001600160a01b0383166000908152600460205260408120805460019290610e6c908490611d60565b90915550506001600160a01b0382166000908152600460205260408120805460019290610e9a908490611d15565b909155505060008181526003602052604080822080546001600160a01b0319166001600160a01b0386811691821790925591518493918716917fddf252ad1be2c89b69c2b068fc378daa952ba7f163c4a11628f55a4df523b3ef91a4505050565b6109998282604051806020016040528060008152506112cb565b600080546001600160a01b038381166001600160a01b0319831681178455604051919092169283917f8be0079c531659141344cd1fd0a4f28419497f9722a3daafe3b4186f6b6457e09190a35050565b816001600160a01b0316836001600160a01b03161415610fc75760405162461bcd60e51b815260206004820152601960248201527f4552433732313a20617070726f766520746f2063616c6c6572000000000000006044820152606401610525565b6001600160a01b03838116600081815260066020908152604080832094871680845294825291829020805460ff191686151590811790915591519182527f17307eab39ab6107e8899845ad3d59bd9653f200f220920489ca2b5937696c31910160405180910390a3505050565b61103f848484610d5b565b61104b848484846112fe565b6107e05760405162461bcd60e51b815260040161052590611c0c565b60608161108b5750506040805180820190915260018152600360fc1b602082015290565b8160005b81156110b5578061109f81611dde565b91506110ae9050600a83611d2d565b915061108f565b60008167ffffffffffffffff8111156110d0576110d0611e4f565b6040519080825280601f01601f1916602001820160405280156110fa576020820181803683370190505b5090505b8415610d535761110f600183611d60565b915061111c600a86611df9565b611127906030611d15565b60f81b81838151811061113c5761113c611e39565b60200101906001600160f81b031916908160001a90535061115e600a86611d2d565b94506110fe565b805160609080611185575050604080516020810190915260008152919050565b60006003611194836002611d15565b61119e9190611d2d565b6111a9906004611d41565b905060006111b8826020611d15565b67ffffffffffffffff8111156111d0576111d0611e4f565b6040519080825280601f01601f1916602001820160405280156111fa576020820181803683370190505b5090506000604051806060016040528060408152602001611e7c604091399050600181016020830160005b86811015611286576003818a01810151603f601282901c8116860151600c83901c8216870151600684901c831688015192909316870151600891821b60ff94851601821b92841692909201901b91160160e01b835260049092019101611225565b5060038606600181146112a057600281146112b1576112bd565b613d3d60f01b6001198301526112bd565b603d60f81b6000198301525b505050918152949350505050565b6112d5838361140b565b6112e260008484846112fe565b61065b5760405162461bcd60e51b815260040161052590611c0c565b60006001600160a01b0384163b1561140057604051630a85bd0160e11b81526001600160a01b0385169063150b7a0290611342903390899088908890600401611bbc565b602060405180830381600087803b15801561135c57600080fd5b505af192505050801561138c575060408051601f3d908101601f19168201909252611389918101906118d9565b60015b6113e6573d8080156113ba576040519150601f19603f3d011682016040523d82523d6000602084013e6113bf565b606091505b5080516113de5760405162461bcd60e51b815260040161052590611c0c565b805181602001fd5b6001600160e01b031916630a85bd0160e11b149050610d53565b506001949350505050565b6001600160a01b0382166114615760405162461bcd60e51b815260206004820181905260248201527f4552433732313a206d696e7420746f20746865207a65726f20616464726573736044820152606401610525565b6000818152600360205260409020546001600160a01b0316156114c65760405162461bcd60e51b815260206004820152601c60248201527f4552433732313a20746f6b656e20616c7265616479206d696e746564000000006044820152606401610525565b6001600160a01b03821660009081526004602052604081208054600192906114ef908490611d15565b909155505060008181526003602052604080822080546001600160a01b0319166001600160a01b03861690811790915590518392907fddf252ad1be2c89b69c2b068fc378daa952ba7f163c4a11628f55a4df523b3ef908290a45050565b82805461155990611da3565b90600052602060002090601f01602090048101928261157b57600085556115c1565b82601f106115945782800160ff198235161785556115c1565b828001600101855582156115c1579182015b828111156115c15782358255916020019190600101906115a6565b506115cd9291506115d1565b5090565b5b808211156115cd57600081556001016115d2565b80356001600160a01b03811681146115fd57600080fd5b919050565b60008083601f84011261161457600080fd5b50813567ffffffffffffffff81111561162c57600080fd5b60208301915083602082850101111561164457600080fd5b9250929050565b60006020828403121561165d57600080fd5b611666826115e6565b9392505050565b6000806040838503121561168057600080fd5b611689836115e6565b9150611697602084016115e6565b90509250929050565b6000806000606084860312156116b557600080fd5b6116be846115e6565b92506116cc602085016115e6565b9150604084013590509250925092565b600080600080608085870312156116f257600080fd5b6116fb856115e6565b9350602061170a8187016115e6565b935060408601359250606086013567ffffffffffffffff8082111561172e57600080fd5b818801915088601f83011261174257600080fd5b81358181111561175457611754611e4f565b611766601f8201601f19168501611ce4565b9150808252898482850101111561177c57600080fd5b808484018584013760008482840101525080935050505092959194509250565b600080604083850312156117af57600080fd5b6117b8836115e6565b9150602083013580151581146117cd57600080fd5b809150509250929050565b600080604083850312156117eb57600080fd5b6117f4836115e6565b946020939093013593505050565b6000806040838503121561181557600080fd5b823567ffffffffffffffff8082111561182d57600080fd5b818501915085601f83011261184157600080fd5b813560208282111561185557611855611e4f565b8160051b9250611866818401611ce4565b8281528181019085830185870184018b101561188157600080fd5b600096505b848710156118ab57611897816115e6565b835260019690960195918301918301611886565b509997909101359750505050505050565b6000602082840312156118ce57600080fd5b813561166681611e65565b6000602082840312156118eb57600080fd5b815161166681611e65565b60006020828403121561190857600080fd5b5035919050565b60008060008060006060868803121561192757600080fd5b85359450602086013567ffffffffffffffff8082111561194657600080fd5b61195289838a01611602565b9096509450604088013591508082111561196b57600080fd5b5061197888828901611602565b969995985093965092949392505050565b600081518084526119a1816020860160208601611d77565b601f01601f19169290920160200192915050565b8054600090600181811c90808316806119cf57607f831692505b60208084108214156119f157634e487b7160e01b600052602260045260246000fd5b818015611a055760018114611a1657611a43565b60ff19861689528489019650611a43565b60008881526020902060005b86811015611a3b5781548b820152908501908301611a22565b505084890196505b50505050505092915050565b6e113232b9b1b934b83a34b7b7111d1160891b81526000611a73600f8301846119b5565b601160f91b81526001019392505050565b67113730b6b2911d1160c11b81528251600090611aa8816008850160208801611d77565b61202360f01b6008918401918201528351611aca81600a840160208801611d77565b601160f91b600a9290910191820152600b01949350505050565b681134b6b0b3b2911d1160b91b81526000611a7360098301846119b5565b607b60f81b815260008451611b1e816001850160208901611d77565b8083019050600b60fa1b8060018301528551611b41816002850160208a01611d77565b60029201918201528351611b5c816003840160208801611d77565b607d60f81b6003929091019182015260040195945050505050565b7f646174613a6170706c69636174696f6e2f6a736f6e3b6261736536342c000000815260008251611baf81601d850160208701611d77565b91909101601d0192915050565b6001600160a01b0385811682528416602082015260408101839052608060608201819052600090611bef90830184611989565b9695505050505050565b6020815260006116666020830184611989565b60208082526032908201527f4552433732313a207472616e7366657220746f206e6f6e20455243373231526560408201527131b2b4bb32b91034b6b83632b6b2b73a32b960711b606082015260800190565b6020808252818101527f4f776e61626c653a2063616c6c6572206973206e6f7420746865206f776e6572604082015260600190565b60208082526031908201527f4552433732313a207472616e736665722063616c6c6572206973206e6f74206f6040820152701ddb995c881b9bdc88185c1c1c9bdd9959607a1b606082015260800190565b604051601f8201601f1916810167ffffffffffffffff81118282101715611d0d57611d0d611e4f565b604052919050565b60008219821115611d2857611d28611e0d565b500190565b600082611d3c57611d3c611e23565b500490565b6000816000190483118215151615611d5b57611d5b611e0d565b500290565b600082821015611d7257611d72611e0d565b500390565b60005b83811015611d92578181015183820152602001611d7a565b838111156107e05750506000910152565b600181811c90821680611db757607f821691505b60208210811415611dd857634e487b7160e01b600052602260045260246000fd5b50919050565b6000600019821415611df257611df2611e0d565b5060010190565b600082611e0857611e08611e23565b500690565b634e487b7160e01b600052601160045260246000fd5b634e487b7160e01b600052601260045260246000fd5b634e487b7160e01b600052603260045260246000fd5b634e487b7160e01b600052604160045260246000fd5b6001600160e01b031981168114610bf357600080fdfe4142434445464748494a4b4c4d4e4f505152535455565758595a6162636465666768696a6b6c6d6e6f707172737475767778797a303132333435363738392b2fa2646970667358221220205be1fa595396c32e37588dab1caa750bab4edd72280ecc0c3e12c3d870f8cb64736f6c63430008060033",
    "immutableReferences": {},
    "source": "// SPDX-License-Identifier: MIT\npragma solidity >= 0.4.0  < 0.9.0;\n\nimport \"@openzeppelin/contracts/access/Ownable.sol\";\nimport \"@openzeppelin/contracts/token/ERC721/ERC721.sol\";\n\nlibrary LibString {\n    function toString(uint256 value) internal pure returns (string memory) {\n\n        if (value == 0) {\n            return \"0\";\n        }\n        uint256 temp = value;\n        uint256 digits;\n        while (temp != 0) {\n            digits++;\n            temp /= 10;\n        }\n        bytes memory buffer = new bytes(digits);\n        while (value != 0) {\n            digits -= 1;\n            buffer[digits] = bytes1(uint8(48 + uint256(value % 10)));\n            value /= 10;\n        }\n        return string(buffer);\n    }\n\n}\n\nlibrary LibBase64 {\n    bytes internal constant TABLE =\n        \"ABCDEFGHIJKLMNOPQRSTUVWXYZabcdefghijklmnopqrstuvwxyz0123456789+/\";\n\n    /// @notice Encodes some bytes to the base64 representation\n    function encode(bytes memory data) internal pure returns (string memory) {\n        uint256 len = data.length;\n        if (len == 0) return \"\";\n\n        // multiply by 4/3 rounded up\n        uint256 encodedLen = 4 * ((len + 2) / 3);\n\n        // Add some extra buffer at the end\n        bytes memory result = new bytes(encodedLen + 32);\n\n        bytes memory table = TABLE;\n\n        assembly {\n            let tablePtr := add(table, 1)\n            let resultPtr := add(result, 32)\n\n            for {\n                let i := 0\n            } lt(i, len) {\n\n            } {\n                i := add(i, 3)\n                let input := and(mload(add(data, i)), 0xffffff)\n\n                let out := mload(add(tablePtr, and(shr(18, input), 0x3F)))\n                out := shl(8, out)\n                out := add(\n                    out,\n                    and(mload(add(tablePtr, and(shr(12, input), 0x3F))), 0xFF)\n                )\n                out := shl(8, out)\n                out := add(\n                    out,\n                    and(mload(add(tablePtr, and(shr(6, input), 0x3F))), 0xFF)\n                )\n                out := shl(8, out)\n                out := add(\n                    out,\n                    and(mload(add(tablePtr, and(input, 0x3F))), 0xFF)\n                )\n                out := shl(224, out)\n\n                mstore(resultPtr, out)\n\n                resultPtr := add(resultPtr, 4)\n            }\n\n            switch mod(len, 3)\n            case 1 {\n                mstore(sub(resultPtr, 2), shl(240, 0x3d3d))\n            }\n            case 2 {\n                mstore(sub(resultPtr, 1), shl(248, 0x3d))\n            }\n\n            mstore(result, encodedLen)\n        }\n\n        return string(result);\n    }\n}\n\ncontract MPTEST is Ownable, ERC721{\n\n    string constant private TOKEN_NAME = \"MPTEST\";\n    string constant private TOKEN_SYMBOL = \"MPTEST\";\n    uint256 constant private TOKEN_ID_OFFSET = 1;\n    uint256[] private _planTypes;\n\n    // URL()\n    mapping( uint256 => string ) private _planImageUrls;\n    mapping( uint256 => string ) private _planDescriptions;\n\n    constructor() Ownable() ERC721( TOKEN_NAME, TOKEN_SYMBOL ){}\n\n    //Function to mint all users corresponding to the same image at once.\n    function batchCreateTokenUsingImgUrl(address[] memory nftOwners,uint256 planType)\n        external\n        onlyOwner\n    {\n        uint256 numOfAddress = nftOwners.length;\n        for(uint256 i = 0;i < numOfAddress;i++){\n            address nftOwner = nftOwners[i];\n            uint256 newItemId = TOKEN_ID_OFFSET + _planTypes.length;\n            _safeMint(nftOwner,newItemId);\n            _planTypes.push(planType);\n        }\n    }\n\n    function createToken(uint256 planType) external returns(uint256){\n        uint256 newItemId = TOKEN_ID_OFFSET + _planTypes.length;\n        _safeMint(_msgSender(),newItemId);\n        _planTypes.push(planType);\n        return newItemId;\n    }\n\n    function tokenURI(uint256 tokenId)\n        public\n        view\n        override\n        returns(string memory)\n    {\n        require( _exists( tokenId ), \"nonexsitent token\" );\n        uint256 planType = _planTypes[tokenId - TOKEN_ID_OFFSET];\n\n        string memory name = string( abi.encodePacked( '\"name\":\"', TOKEN_SYMBOL, ' #', LibString.toString(tokenId), '\"' ) );\n        string memory description = string( abi.encodePacked( '\"description\":\"', _planDescriptions[planType], '\"' ) );\n        string memory image = string( abi.encodePacked( '\"image\":\"', _planImageUrls[planType], '\"' ) );\n\n         // [Base64]\n        string memory json = LibBase64.encode(\n            bytes(\n                string(\n                    abi.encodePacked(\n                        '{',\n                        name,\n                        ',',\n                        description,\n                        ',',\n                        image,\n                        '}'\n                    )\n                )\n            )\n        );\n\n        string memory output = string(\n            abi.encodePacked(\"data:application/json;base64,\", json)\n        );\n        return output;\n    }\n\n    function totalSupply() external view returns(uint256){\n        return _planTypes.length;\n    }\n\n    function setPlan( uint256 plan, string calldata url, string calldata description ) external onlyOwner {\n        _planImageUrls[plan] = url;\n        _planDescriptions[plan] = description;\n    }\n\n    function planImageUrl( uint256 plan ) external view returns (string memory) { return( _planImageUrls[plan] ); }\n    function planDescription( uint256 plan ) external view returns (string memory) { return( _planDescriptions[plan] ); }\n\n}\n",
    "sourcePath": "/Users/yamane/smartContract/Dapps_py/truffle_pro/contracts/mptest.sol",
    "compiler": {
        "name": "solc",
        "version": "0.8.6+commit.11564f7e.Emscripten.clang"
    },
    "schemaVersion": "3.4.3",
    "updatedAt": "2022-02-07T07:44:53.598Z",
    "devdoc": {
        "kind": "dev",
        "methods": {
            "approve(address,uint256)": {
                "details": "See {IERC721-approve}."
            },
            "balanceOf(address)": {
                "details": "See {IERC721-balanceOf}."
            },
            "getApproved(uint256)": {
                "details": "See {IERC721-getApproved}."
            },
            "isApprovedForAll(address,address)": {
                "details": "See {IERC721-isApprovedForAll}."
            },
            "name()": {
                "details": "See {IERC721Metadata-name}."
            },
            "owner()": {
                "details": "Returns the address of the current owner."
            },
            "ownerOf(uint256)": {
                "details": "See {IERC721-ownerOf}."
            },
            "renounceOwnership()": {
                "details": "Leaves the contract without owner. It will not be possible to call `onlyOwner` functions anymore. Can only be called by the current owner. NOTE: Renouncing ownership will leave the contract without an owner, thereby removing any functionality that is only available to the owner."
            },
            "safeTransferFrom(address,address,uint256)": {
                "details": "See {IERC721-safeTransferFrom}."
            },
            "safeTransferFrom(address,address,uint256,bytes)": {
                "details": "See {IERC721-safeTransferFrom}."
            },
            "setApprovalForAll(address,bool)": {
                "details": "See {IERC721-setApprovalForAll}."
            },
            "supportsInterface(bytes4)": {
                "details": "See {IERC165-supportsInterface}."
            },
            "symbol()": {
                "details": "See {IERC721Metadata-symbol}."
            },
            "tokenURI(uint256)": {
                "details": "See {IERC721Metadata-tokenURI}."
            },
            "transferFrom(address,address,uint256)": {
                "details": "See {IERC721-transferFrom}."
            },
            "transferOwnership(address)": {
                "details": "Transfers ownership of the contract to a new account (`newOwner`). Can only be called by the current owner."
            }
        },
        "version": 1
    },
    "userdoc": {
        "kind": "user",
        "methods": {},
        "version": 1
    }
}